:020000040000FA
:100000000C9462000C948A000C948A000C948A0070
:100010000C948A000C948A000C948A000C948A0038
:100020000C948A000C948A000C948A000C948A0028
:100030000C948A000C948A000C948A000C948A0018
:100040000C945C040C948A000C948A000C948A0032
:100050000C948A000C948A000C948A000C948A00F8
:100060000C94A6040C948A000000000024002700D1
:100070002A0000000000250028002B0000000000DE
:1000800023002600290004040404040404040202DA
:100090000202020203030303030301020408102007
:1000A0004080010204081020010204081020000012
:1000B0000008000201000003040700000000000027
:1000C0000000C50511241FBECFEFD8E0DEBFCDBFB5
:1000D00011E0A0E0B1E0E6E9F0E102C005900D9288
:1000E000A436B107D9F722E0A4E6B1E001C01D9221
:1000F000A135B207E1F710E0C2E6D0E004C02197D5
:10010000FE010E944308C136D107C9F70E94E505E8
:100110000C9449080C94000008950895AF92BF9282
:10012000CF92DF92EF92FF920F931F93CF93DF93C3
:100130006C017B018B01040F151FEB015E01AE18F2
:10014000BF08C017D10759F06991D601ED91FC9114
:100150000190F081E02DC6010995892B79F7C50141
:10016000DF91CF911F910F91FF90EF90DF90CF9093
:10017000BF90AF900895833081F028F4813099F0DA
:100180008230A9F008958730A9F08830C9F0843012
:10019000B1F4809180008F7D03C0809180008F77C3
:1001A00080938000089584B58F7784BD089584B5C9
:1001B0008F7DFBCF8091B0008F778093B000089542
:1001C0008091B0008F7DF9CFCF93DF93282F30E05F
:1001D000F901E255FF4F8491F901E656FF4FD491A2
:1001E000F901EA57FF4FC491CC23A1F081110E947D
:1001F000BB00EC2FF0E0EE0FFF1FE458FF4FA5917E
:10020000B491EC91ED2381E090E009F480E0DF917E
:10021000CF91089580E090E0FACF1F93CF93DF93C2
:10022000282F30E0F901E255FF4F8491F901E6569D
:10023000FF4FD491F901EA57FF4FC491CC23A9F0A5
:10024000162F81110E94BB00EC2FF0E0EE0FFF1F74
:10025000EE58FF4FA591B4918FB7F894EC9111111E
:1002600008C0D095DE23DC938FBFDF91CF911F9123
:100270000895DE2BF8CFCF93DF9390E0FC01E65694
:10028000FF4F24918A579F4FFC0184918823D1F01E
:1002900090E0880F991FFC01E859FF4FA591B49198
:1002A000FC01EE58FF4FC591D49161110EC09FB76C
:1002B000F8948C91E22FE0958E238C932881E22391
:1002C000E8839FBFDF91CF9108958FB7F894EC91A9
:1002D000E22BEC938FBFF6CF3FB7F89480911B02CF
:1002E00090911C02A0911D02B0911E0226B5A89B00
:1002F00005C02F3F19F00196A11DB11D3FBFBA2FB8
:10030000A92F982F8827BC01CD01620F711D811D77
:10031000911D42E0660F771F881F991F4A95D1F7FC
:1003200008958F929F92AF92BF92CF92DF92EF92F9
:10033000FF924B015C010E946C016B017C010E94E9
:100340006C016C197D098E099F09683E7340810517
:100350009105A8F321E0821A9108A108B10888EE5E
:10036000C80E83E0D81EE11CF11C81149104A10485
:10037000B10429F7FF90EF90DF90CF90BF90AF903E
:100380009F908F90089508952091A501260F3327FF
:10039000331F21323105ECF42091EE01FC0190E095
:1003A00080E0243069F082E00895A091A5012191B8
:1003B000AC014B575E4FA40FB52FB11D2C93019686
:1003C000861798F38091A501680F6093A50180E0DE
:1003D000089581E008951092EE0181E08093ED018F
:1003E0001092C80161E082E10E940D0161E083E1A9
:1003F0000E940D01E9EBF0E080818E7F8083808197
:100400008D7F808388E48093B80085E48093BC006E
:100410000895CF93DF9391E0909384018823B9F0FE
:10042000C091B800D091BA008091BC008A7B8093C3
:10043000BC0060E082E10E940D0160E083E10E9467
:100440000D010E94EB01D093BA00C093B800DF9178
:10045000CF9108950895E091260280912502E81732
:1004600030F4F0E0EC59FE4F808190E008958FEF7A
:100470009FEF089590912602809125022FEF3FEF84
:10048000981748F4E92FF0E0EC59FE4F208130E056
:100490009F5F90932602C901089580912502909153
:1004A0002602891B990B0895CF92DF92EF92FF925B
:1004B0000F931F93CF93DF937C01CB018A0120918F
:1004C000F401222389F0EB016B01C40ED51ECC157B
:1004D000DD0569F06991D701ED91FC910190F08102
:1004E000E02DC7010995F3CF642F0E94C401C80114
:1004F000DF91CF911F910F91FF90EF90DF90CF9000
:100500000895CF93DF931F92CDB7DEB76983209113
:10051000F4012223F9F020912302203258F021E047
:1005200030E0FC013383228390E080E00F90DF9184
:10053000CF91089580912402E82FF0E0EB50FE4F18
:10054000998190838F5F809324028093230281E0BE
:1005500090E0ECCF61E0CE0101960E94C401F7CF9C
:10056000CF92DF92EF92FF920F931F93CF93DF937F
:10057000FC01C48121E02093F401C0931502109284
:100580002402109223028385682B89E392E00E9463
:100590008102D0912302D13208F092C00E946C01F6
:1005A0006B017C018091EE01811165C082E0809336
:1005B000EE0181E08093ED018FEF8093EC011092CA
:1005C000EB01D093EA01A5EFB1E0EAECF1E080E0C5
:1005D000D81385C01092C9018091C901CC0FC82BD6
:1005E000C093C9018091C801813009F07CC010928C
:1005F000C8010E946C016B017C018091C90180934C
:10060000BB008091F0019091F101A091F201B091B5
:10061000F301892B8A2B8B2B99F00E946C0100919E
:10062000F0011091F1012091F2013091F3016C1968
:100630007D098E099F090617170728073907E0F17A
:100640008091BC0083FDD9CF85EC8093BC000E94D3
:100650006C016B017C018091EE01823009F445C090
:100660008091EC018F3F61F18091EC01803241F18A
:100670008091EC0125C08091F0019091F101A09151
:10068000F201B091F301892B8A2B8B2B09F48ACFCD
:100690000E946C010091F0011091F1012091F20192
:1006A0003091F3016C197D098E099F090617170710
:1006B0002807390708F076CF8091EF010E940902E0
:1006C00010922402109223021092F401DF91CF9134
:1006D0001F910F91FF90EF90DF90CF9008959D9123
:1006E00091938F5F75CF85EEB0CF8091F00190919F
:1006F000F101A091F201B091F301892B8A2B8B2B90
:1007000009F4A9CF0E946C010091F0011091F10150
:100710002091F2013091F3016C197D098E099F0936
:10072000061717072807390708F095CFC5CF90E0BF
:1007300080E00895FC0101900020E9F73197AF01B6
:10074000481B590BBC0185E492E00C948E000F937A
:100750001F93CF938C01C62F0E94B0026C2F646050
:10076000C8010E94B0026C2F6B7FC8010E94B002CA
:1007700083EC90E00197F1F7CF911F910F910895CD
:100780000F931F93CF93DF938C01D62FC42F607FDD
:10079000642B0E94A70380E1D89FB00111246C2B29
:1007A000C801DF91CF911F910F910C94A70340E0F6
:1007B00061E085E492E00E94C0038BE39FE1019732
:1007C000F1F70895CF93DF93CDB7DEB728970FB633
:1007D000F894DEBF0FBECDBF98E0E0E0F1E0DE01AF
:1007E000119601900D929A95E1F790914D0296170E
:1007F00008F46FEF262F30E0220F331F41E050E066
:100800004C0F5D1F240F351FF9016081680F606870
:1008100040E085E492E028960FB6F894DEBF0FBE64
:10082000CDBFDF91CF910C94C00341E00E94C00383
:1008300081E090E0089541E06BED85E492E00E9454
:10084000C00381E090E0089585ED8093BC00809125
:10085000F0019091F101A091F201B091F30107969E
:10086000A11DB11D23E0B695A795979587952A956B
:10087000D1F72091BC0024FD03C01092EE01089531
:100880004091F0015091F1016091F2017091F301FA
:10089000452B462B472B69F30097A105B10541F085
:1008A00025E32A95F1F700000197A109B109E1CFED
:1008B0008091EF010C9409021F920F920FB60F92D4
:1008C00011242F933F938F939F93AF93BF93809166
:1008D000170290911802A0911902B0911A0230915A
:1008E000160223E0230F2D3758F50196A11DB11DE7
:1008F000209316028093170290931802A093190276
:10090000B0931A0280911B0290911C02A0911D02CB
:10091000B0911E020196A11DB11D80931B02909300
:100920001C02A0931D02B0931E02BF91AF919F9134
:100930008F913F912F910F900FBE0F901F901895A0
:1009400026E8230F0296A11DB11DD2CF1F920F9250
:100950000FB60F9211242F933F934F935F936F9392
:100960007F938F939F93AF93BF93EF93FF93809168
:10097000B900887F803609F44AC0F0F5883209F45E
:10098000A7C018F5803109F49BC0B8F4882309F496
:10099000F9C0883009F494C0FF91EF91BF91AF91F5
:1009A0009F918F917F916F915F914F913F912F9187
:1009B0000F900FBE0F901F901895883109F488C0D2
:1009C000803251F78093EC0114C0803409F49DC04B
:1009D00040F48033B9F38833F9F68093EC0185EC69
:1009E000B0C0803509F485C0883509F496C08834D4
:1009F00099F60E942404D0CF883909F48CC038F5C8
:100A0000883729F050F4883611F0803729F683E0D2
:100A10008093EE011092C70157C0883809F47BC05B
:100A2000803919F0803809F0B7CF8091C701803242
:100A300008F071C0E091C70181E08E0F8093C7017B
:100A40008091BB00F0E0E955FE4F80833DC0803BC4
:100A500039F0E0F4803A09F479C0883A09F09CCF83
:100A600084E08093EE011092A6011092A501E0911E
:100A70002102F091220209958091A50181110FC0F8
:100A800081E08093A5011092850109C0803C09F4A2
:100A9000A6CF883C09F4A3CF883B09F07DCFE09135
:100AA000A60181E08E0F8093A601F0E0EB57FE4F88
:100AB00080818093BB009091A6018091A50129C0FF
:100AC0008091C9018093BB0085EC8093BC0064CF0A
:100AD0009091EB018091EA01981758F5E091EB01B4
:100AE00081E08E0F8093EB01F0E0E653FE4F8081B2
:100AF000E9CFE091EB0181E08E0F8093EB018091D3
:100B0000BB00F0E0E653FE4F80839091EB018091B3
:100B1000EA019817C8F285E8D8CFE091EB0181E0AF
:100B20008E0F8093EB018091BB00F0E0E653FE4F07
:100B300080838091ED0181115CCF81E08093C801B9
:100B400084EA8093BC001092EE0126CF85EC80935E
:100B5000BC001092EE018091C701803230F4E09128
:100B6000C701F0E0E955FE4F10826091C70170E0C7
:100B7000E0911F02F091200287EA91E0099510921E
:100B8000C7010ACF1092EC0134CFE9E3F2E01382FF
:100B9000128288EE93E0A0E0B0E084839583A68380
:100BA000B7838CE091E091838083E5E4F2E01382E7
:100BB00012828EE191E09183808388E3848380E1D7
:100BC000818782E0828713860895789484B5826055
:100BD00084BD84B5816084BD85B5826085BD85B5E1
:100BE000816085BD80916E00816080936E0010925F
:100BF00081008091810082608093810080918100DA
:100C0000816080938100809180008160809380006A
:100C10008091B10084608093B1008091B0008160C8
:100C20008093B00080917A00846080937A008091F4
:100C30007A00826080937A0080917A00816080934C
:100C40007A0080917A00806880937A001092C100C7
:100C50001092260210922502109224021092230272
:100C60000E94EB018CE890E0909322028093210295
:100C70008DE890E09093200280931F0210924A0228
:100C800080914F02823018F098E090934A0280934E
:100C90004D0262E370E080E090E00E94910160917B
:100CA000500285E492E00E94B00268EE73E080E0BA
:100CB00090E00E94910160E385E492E00E94A70326
:100CC000CBE4D6E4CE010197F1F760E385E492E04E
:100CD0000E94A7032197F1F760E385E492E00E9468
:100CE000A70383E592E00197F1F760E285E492E0E3
:100CF0000E94A70360914A02606240E085E492E0AE
:100D00000E94C00384E080934B0240E06CE085E4E5
:100D100092E00E94C0030E94D70382E080934C02BD
:100D200040E066E085E492E00E94C00340E062E0BB
:100D300085E492E00E94C0038BE39FE10197F1F705
:100D400088E08093500260E085E492E00E94B00267
:100D500060E08FE00E943B0160E080E10E943B0187
:100D600060E08FE00E943B0160E083E00E943B0175
:100D700060E08EE00E943B0161E088E00E943B0160
:100D800061E087E00E943B0160E087E00E940D0186
:100D900080E0A82E80E0B82ECC24C394D12C88E02B
:100DA0000E94E40090933802809337028EE00E9404
:100DB000E40090933602809335028FE00E94E400B5
:100DC000EC01909334028093330280E10E94E400AE
:100DD0008C01909332028093310281E10E94E40001
:100DE0007C019093300280932F0283E00E94E40004
:100DF0004C0190932E0280932D020E94D70381E034
:100E00008816910409F085C0EA94EF2809F008C11A
:100E10000130110509F004C1219709F001C160E01A
:100E200080E00E94E2030E941B040E941B040E94B7
:100E30001B040E941B0460E085E00E94E20386E23E
:100E400091E00E949A0310922C0210922B021092B1
:100E50002A0210922902809137029091380261E0B3
:100E6000019709F0EEC080E00E94E20389E491E07E
:100E70000E949A038091350290913602813091054B
:100E800009F0E5C080912B0290912C02019721F48A
:100E900061E088E00E940D01809135029091360258
:100EA000019721F4109228021092270280912B02C0
:100EB00090912C02892B21F460E088E00E940D01C2
:100EC0008091290290912A02019731F080912702A6
:100ED00090912802019751F461E087E00E940D0192
:100EE00064EF71E080E090E00E94910160E087E0B3
:100EF0000E940D0164E670E080E090E00E949101A4
:100F00000E94D703A114B10409F449CF0E94000044
:100F100046CF892809F084C081E0E816F104F1F495
:100F20000130110509F07CC0219709F079C060E01B
:100F300080E00E94E2030E941B040E941B040E94A6
:100F40001B048BE291E00E949A0360E085E00E941E
:100F5000E2038DE291E00E949A0379CFEF2809F035
:100F60005FC00130110509F5C130D10509F058C045
:100F700060E080E00E94E2030E941B040E941B04C8
:100F80008BE291E00E949A038BE291E00E949A0327
:100F900060E085E00E94E20383E391E00E949A030F
:100FA000D0932C02C0932B0252CF012BC9F5C13034
:100FB000D105C9F460E080E00E94E2030E941B04B6
:100FC0008BE291E00E949A038BE291E00E949A03E7
:100FD0008BE291E00E949A0360E085E00E94E203C8
:100FE00088E391E0B8CFCD2BD9F460E080E00E9497
:100FF000E2038BE291E00E949A038BE291E00E946F
:101000009A038BE291E00E949A038BE291E00E94A6
:101010009A0360E085E00E94E2038EE391E09BCFBB
:1010200060E088E00E940D0160E080E00E94E20341
:1010300082E491E00E949A03D0922A02C09229028F
:101040000ACF80E00E94E20381E591E011CF892B75
:1010500009F022CF60E088E00E940D0160E08BE0A3
:101060000E94E2038AE591E00E949A0361E08BE02E
:101070000E94E2038EE591E00E949A03D09228023A
:10108000C092270209CFEE0FFF1F0590F491E02DCB
:101090000994F894FFCF00004000140054000000B1
:1010A00000008102540297032A024D023A022B02E9
:1010B0000000000015048E009703C30146554C4CF8
:1010C000005F00332F3474680048414C4600312FD4
:1010D000347468004C4F57004552524F5221005013
:1010E000756D70204F4E0050756D70204F46460054
:0A10F0004C6F770053756D7000001F
:107E0000112484B714BE81FFF0D085E080938100F7
:107E100082E08093C00088E18093C10086E0809377
:107E2000C20080E18093C4008EE0C9D0259A86E02C
:107E300020E33CEF91E0309385002093840096BBD3
:107E4000B09BFECF1D9AA8958150A9F7CC24DD24C4
:107E500088248394B5E0AB2EA1E19A2EF3E0BF2EE7
:107E6000A2D0813461F49FD0082FAFD0023811F036
:107E7000013811F484E001C083E08DD089C08234E0
:107E800011F484E103C0853419F485E0A6D080C0E4
:107E9000853579F488D0E82EFF2485D0082F10E0AE
:107EA000102F00270E291F29000F111F8ED06801E7
:107EB0006FC0863521F484E090D080E0DECF843638
:107EC00009F040C070D06FD0082F6DD080E0C81688
:107ED00080E7D80618F4F601B7BEE895C0E0D1E017
:107EE00062D089930C17E1F7F0E0CF16F0E7DF06D8
:107EF00018F0F601B7BEE89568D007B600FCFDCFD4
:107F0000A601A0E0B1E02C9130E011968C91119780
:107F100090E0982F8827822B932B1296FA010C0160
:107F200087BEE89511244E5F5F4FF1E0A038BF0790
:107F300051F7F601A7BEE89507B600FCFDCF97BE46
:107F4000E89526C08437B1F42ED02DD0F82E2BD052
:107F50003CD0F601EF2C8F010F5F1F4F84911BD097
:107F6000EA94F801C1F70894C11CD11CFA94CF0C13
:107F7000D11C0EC0853739F428D08EE10CD085E9AC
:107F80000AD08FE07ACF813511F488E018D01DD067
:107F900080E101D065CF982F8091C00085FFFCCF94
:107FA0009093C60008958091C00087FFFCCF809118
:107FB000C00084FD01C0A8958091C6000895E0E648
:107FC000F0E098E1908380830895EDDF803219F02E
:107FD00088E0F5DFFFCF84E1DECF1F93182FE3DFCA
:107FE0001150E9F7F2DF1F91089580E0E8DFEE27F6
:047FF000FF270994CA
:027FFE00040479
:00000001FF
